:0408000006EF04F00B
:0808080016ED08F055EF0AF0AF
:1010000043686F72642E432020202020202020205F
:1010100020202020002020202020202020202020F0
:101020002020202020202020200000000600F2A404
:1010300001D001D013D016C001F017C002F0011E7C
:10104000021E014A022A01C0D6FF02C0D7FF81500A
:10105000D8B401D001D001D08270F2949EA001D00A
:1010600001D013D018C001F019C002F0011E021EF9
:10107000014A022A01C0CEFF02C0CFFF8150D8B47E
:1010800001D001D001D082729E909EA201D001D0E9
:1010900081D081A001D001D00CD0580E176EC70EA0
:1010A000166E4A0E196EA60E186E3B0E1B6E400E83
:1010B0001A6E81A201D001D00CD04F0E176E170E00
:1010C000166E420E196E820E186E370E1B6EED0EE6
:1010D0001A6E81A401D001D00CD04A0E176EA60E54
:1010E000166E3B0E196E400E186E310E1B6ED30E2F
:1010F0001A6E81A601D001D00CD0420E176E820E5E
:10110000166E370E196EED0E186E2C0E1B6E630EDA
:101110001A6E81A801D001D00CD0370E176EED0EDB
:10112000166E2C0E196E630E186E4A0E1B6EA60EEE
:101130001A6E81AA01D001D00CD04F0E176E170E77
:10114000166E420E196E820E186E370E1B6EED0E65
:101150001A6E81AC01D001D00CD03B0E176E400E40
:10116000166E310E196ED30E186E4F0E1B6E170EC3
:101170001A6E81AE01D001D00CD04F0E176E170E33
:10118000166E420E196E820E186E370E1B6EED0E25
:101190001A6E9E92A1A201D001D013D01AC001F004
:1011A0001BC002F0011E021E014A022A01C0B2FF4A
:1011B00002C0B3FF8150D8B401D001D001D08274F5
:1011C000A1921100926A9368946A956A966A0F0ECA
:1011D000C16E2BEC0AF0000E0B6AF5EC09F0156AF3
:1011E0001550000F5ED812EC0AF0152A130E156484
:1011F000F7D70B6A010EF5EC09F0156A1550150FBB
:1012000050D812EC0AF0152A130E1564F7D7046AA9
:10121000640E036E40EC0AF0D59A880ED56ED58E1A
:10122000F28AF184F28CCD92810ECD6ECD809D80BC
:101230009F80F28C4D0ECA6EF90ECB6ECA849D82D1
:101240009F82F28CB192810EB16EB180A082A28297
:10125000F28CF28E0B6A010EF5EC09F016C00AF062
:1012600017C00BF0000E0C6A5BEC09F0060E0B6E5B
:10127000010EF5EC09F018C00AF019C00BF0000ED1
:101280000C6A5BEC09F00C0E0B6E010EF5EC09F02C
:101290001AC00AF01BC00BF0000E0C6A5BEC09F0E0
:1012A000D9D7146E14C0F6FF100EF76E000EF86E4C
:1012B0000800F5501200136A0AC003F00BC004F0D6
:1012C000066A0A0E056EB8EC09F013500E0FD96EBF
:1012D000DA6A03C0DFFF0AC003F00BC004F0066A3D
:1012E0000A0E056E93EC09F003C00AF004C00BF07F
:1012F000132A040E1364E0D7050E136E0C5013620C
:1013000003D02E0E12EC0AF013C00DF00D060D5096
:101310000E0FD96EDA6ADF50300F12EC0AF01306A6
:101320001366ECD71200076A086A065005101BE026
:10133000010E096E04D0D89005360636092A06AE8D
:10134000FAD7D890073608360550035C0650045883
:1013500005E30550035E0650045A0780D890063214
:101360000532092EEED707C003F008C004F01200C2
:101370000650051017E0010E076E04D0D890053610
:101380000636072A06AEFAD70550035C0650045805
:1013900004E30550035E0650045AD8900632053225
:1013A000072EF2D703C003F004C004F01200E8CF08
:1013B0000AF083940AC009F0F00E091683500F0B4F
:1013C0000910836E5EEC0AF00AC009F0093AF00ECB
:1013D0000916091683500F0B0910836E5EEC0AF094
:1013E000046A0A0E036E40EF0AF0E8CF0CF00C66B8
:1013F00004D00B50800FD7EC09F00C0404E10B5023
:10140000C00FD7EC09F00C50020A04E10B50940F06
:10141000D7EC09F00C50030AD8A412000B50D40FDB
:10142000D7EF09F0E8CF05F0838405C004F0F00E93
:10143000041683500F0B0410836E5EEC0AF005C097
:1014400004F0043AF00E0416041683500F0B041037
:10145000836E5EEF0AF0010E956E8392330ED7EC29
:1014600009F0320ED7EC09F0280ED7EC09F00E0E79
:10147000D7EC09F0010ED7EC09F0060ED7EF09F012
:10148000056A066A0BD0076A086A074A082A690EC5
:10149000075C020E0858F9E3054A062A0350055C6A
:1014A00004500658D8B01200EED71B6A1A6A196A9F
:1014B000186A176A166A0001E2EF08F0839667EC73
:1014C0000AF0838667EC0AF0839667EF0AF0036AF6
:0A14D000032A130E0364FCD7130C6B
:00000001FF
