:0408000006EF04F00B
:100808008EED05F0A7EF05F0926A936A946A956AEF
:100818000F0EC16ED59A880ED56ED58EF28AF184E8
:10082800F28C64EC05F0026A640E016E79EC05F056
:10083800276A286A296A2A6AF28ED6502724236EE4
:10084800D7502820246E000E2920256E000E2A205D
:10085800266E070E026ED00E016E79EC05F0D650AA
:1008680027241F6ED7502820206E000E2920216EC5
:10087800000E2A20226E000E096A2EEC05F0235085
:100888001F5C0E6E245020580F6E25502158106E94
:1008980026502258116E070E126E5AEC04F0030E01
:1008A800026EE80E016E79EC05F0C7D71E6A0EC01D
:1008B80001F00FC002F010C003F011C004F00A0EDE
:1008C800056E000E066A076A086ADFEC04F01E501F
:1008D800140FD96EDA6A01C0DFFF0EC001F00FC035
:1008E80002F010C003F011C004F00A0E056E000EED
:1008F800066A076A086AA4EC04F001C00EF002C098
:100908000FF003C010F004C011F01E2A090E1E6477
:10091800CED70A0E1E6E12501E6203D02E0E4BEC5E
:1009280005F01EC013F013061350140FD96EDA6ABF
:10093800DF50300F4BEC05F01E061E66ECD7120098
:10094800096A0A6A0B6A0C6A085005100610071033
:1009580029E0010E0D6E06D0D8900536063607360A
:1009680008360D2A08AEF8D7D89009360A360B365D
:100978000C360550015C06500258075003580850C1
:10098800045809E30550015E0650025A0750035AFD
:100998000850045A0980D8900832073206320532C6
:1009A8000D2EE2D709C001F00AC002F00BC003F017
:1009B8000CC004F01200085005100610071023E0C0
:1009C800010E096E06D0D890053606360736083669
:1009D800092A08AEF8D70550015C0650025807509E
:1009E80003580850045808E30550015E0650025A9F
:1009F8000750035A0850045AD89008320732063272
:100A08000532092EE8D701C001F002C002F003C088
:100A180003F004C004F01200E8CF08F0839408C083
:100A280007F0F00E071683500F0B0710836E9EEC2D
:100A380005F008C007F0073AF00E071607168350AE
:100A48000F0B0710836E9EEC05F0026A0A0E016E0A
:100A580079EF05F0E8CF0AF00A6604D00950800F54
:100A680010EC05F00A0404E10950C00F10EC05F081
:100A78000A50020A04E10950940F10EC05F00A50DC
:100A8800030AD8A412000950D40F10EF05F0E8CFDC
:100A980003F0838403C002F0F00E021683500F0B9C
:100AA8000210836E9EEC05F003C002F0023AF00ECD
:100AB8000216021683500F0B0210836E9EEF05F08C
:100AC800010E956E8392330E10EC05F0320E10EC89
:100AD80005F0280E10EC05F00E0E10EC05F0010ED6
:100AE80010EC05F0060E10EF05F0036A046A0BD04F
:100AF800056A066A054A062A690E055C020E06584A
:100B0800F9E3034A042A0150035C02500458D8B0A0
:100B18001200EED70600F2A401D001D00AD0000ED0
:100B28002726000E2822010E2922000E2A22827072
:100B3800F29411008396AEEC05F08386AEEC05F0D6
:100B48008396AEEF05F02A6A296A286A276A0001A7
:100B580008EF04F0016A012A130E0164FCD7130C94
:00000001FF
